:020000020000FC
:100000003EC0189518950FC0189518951895189515
:100010001895189518952DC0189518951895189538
:100020001895189518951F931FB71F93EF93FF937B
:100030000F93EDE6F0E005E010811F3F79F0E894C2
:1000400011811150118309F06894128110401283BC
:1000500029F426F01081D2D01FEF1083ED5FFF4FFF
:100060000A9551F70F91FF91EF911F911FBF1F91BB
:1000700018951F931CB1109361001F9118950FE5FF
:100080000DBF04E00EBFE0E6F0E000270193F4307E
:10009000E9F7EF35D9F7EE27FF2710E01FBF7ED035
:1000A00071D078941CE015BD112714BD1DE713BD58
:1000B00000E809BF0FEF01BB00E002BB112710935E
:1000C0006000BD9ABB9ABA9A00E50DB997980000F6
:1000D0000000979A09E109B900E000BD00E00BB902
:1000E00008ED0AB906E800BD11E41093610007D0DD
:1000F0007894A89562D002D0FBCFFACF089511E092
:10010000A8EEB3E08ED01091610001E40CB997988D
:1001100000000000979A00916000E0EAF2E01127E9
:10012000E00FF11F15911FB9779BFECF15911FB9F5
:10013000779BFECF15911FB9779BFECF0395039553
:1001400003950395063918F400936000089500277D
:1001500000936000089508950895089508950895FE
:10016000089508950895E199FECFFFBBEEBBE09A94
:100170001DB30895E199FECFFFBBEEBB1DBBE29A14
:10018000E19A0895EF93FF93E2E6F0E01FEF0BE0B2
:1001900011930A95E9F7FF91EF910895EF93FF937B
:1001A000EDE6F0E005E01FEF20E0119321932193AD
:1001B0000A95D9F7FF91EF910895E2E6F0E01081FA
:1001C0001F3FD9F0FF27110FE12FE457FD4FC895CE
:1001D000102D0190C895E12FF02DEF93FF930AE0C9
:1001E000E2E6F0E0F894118111930A95E1F71FEF30
:1001F00011937894FF91EF9109940895EF93FF93F1
:100200002F930F93E2E6F0E00BE021912F3F19F0DE
:100210000A9511F0FACF12930F912F91FF91EF9160
:100220000895EF93FF932F930F93EDE6F0E005E031
:100230002081211729F0ED5FFF4F0A9521F0F8CFBB
:10024000A183B28310C0EDE6F0E005E020812F3FEE
:1002500029F0ED5FFF4F0A9531F0F8CFF894108345
:10026000A183B28378940F912F91FF91EF9108951C
:100270002A2D220F220F220F220F2A0D2B5CA22ED5
:100280000895FF93EF93F12FE12FEF917E007F0010
:10029000AB00AC00AD00AE00AF00B000B100B200EA
:1002A000FFFFFF00FFFFFF00C0000300C0000700CA
:1002B00070000E001C00380007FFE0000000000086
:1002C000000000000000000000000000000000002E
:1002D00000000300F0FFFF0070FFFF0000000300BC
:1002E000000000000000000000000000000000000E
:1002F000000000000000000000000000FFFFFF0001
:10030000FFFFFF0000380000003800000038000048
:1003100000380000FFFFFF00FFFFFF0000000000AB
:1003200000000000000000000000000000000000CD
:1003300000000000000000000000000000000000BD
:00000001FF
